:100000000C942A000C943F000C943F000C943F0089
:100010000C943F000C943F000C943F000C943F0064
:100020000C943F000C943F000C943F000C943F0054
:100030000C943F000C943F000C943F000C943F0044
:100040000C943F000C943F000C943F000C943F0034
:100050000C943F0011241FBECFE5D8E0DEBFCDBF1A
:1000600010E0A0E6B0E0E6EAF8E002C005900D92EC
:10007000A438B107D9F70E949A020C9451040C9449
:1000800000008AB38E7F8ABB87E886B980E487B98F
:10009000089597B1907E8770892B87B986B1806467
:1000A00086B9349BFECF86B1806186B924B185B113
:1000B00090E0982F8827820F911DFB019183808308
:1000C0000895FC019081923431F118F4913439F0A3
:1000D00008959334E1F1943409F455C00895828170
:1000E000813061F42AB381E090E0018002C0880F82
:1000F000991F0A94E2F7822B8ABB08952AB381E004
:1001000090E0018002C0880F991F0A94E2F7809561
:1001100082238ABB08958281813061F427B381E014
:1001200090E0018002C0880F991F0A94E2F7822BA9
:1001300087BB089527B381E090E0018002C0880F5B
:10014000991F0A94E2F78095822387BB08958281E4
:10015000813061F424B381E090E0018002C0880F17
:10016000991F0A94E2F7822B84BB089524B381E09F
:1001700090E0018002C0880F991F0A94E2F78095F1
:10018000822384BB08958281813061F421B381E0B0
:1001900090E0018002C0880F991F0A94E2F7822B39
:1001A00081BB089521B381E090E0018002C0880FF7
:1001B000991F0A94E2F78095822381BB08958234C7
:1001C00019F118F4813439F008958334B1F184348D
:1001D00009F44CC00895413059F42BB381E090E00C
:1001E00002C0880F991F6A95E2F7822B8BBB089596
:1001F0002BB381E090E002C0880F991F6A95E2F767
:10020000809582238BBB0895413059F428B381E057
:1002100090E002C0880F991F6A95E2F7822B88BB95
:10022000089528B381E090E002C0880F991F6A9575
:10023000E2F78095822388BB0895413059F425B3B5
:1002400081E090E002C0880F991F6A95E2F7822B47
:1002500085BB089525B381E090E002C0880F991F07
:100260006A95E2F78095822385BB0895413059F461
:1002700022B381E090E002C0880F991F6A95E2F7EF
:10028000822B82BB089522B381E090E002C0880FE8
:10029000991F6A95E2F78095822382BB08951F9388
:1002A000CF93DF93182FD62FC0E017C041E050E066
:1002B0000C2E02C0440F551F0A94E2F78D2F90E0D8
:1002C000482359230C2E02C0559547950A94E2F70E
:1002D0006C2F812F0E94DF00CF5FC83038F3DF9191
:1002E000CF911F910895CF93DF9300D01F92CDB788
:1002F000DEB7198211C01B821A8206C02A813B8197
:100300002F5F3F4F3B832A832A813B81223C314030
:10031000A8F399819F5F99839981981760F30F9053
:100320000F900F90DF91CF910895682F607F81E447
:100330000E944F0141E063E081E40E94DF0040E061
:1003400062E081E40E94DF0040E061E081E40E941D
:10035000DF0081E00E94730140E063E081E40E94DD
:10036000DF0081E00E9473010895CF93C82F682FAA
:10037000607F81E40E944F0141E063E081E40E94DC
:10038000DF0040E062E081E40E94DF0040E061E0E5
:1003900081E40E94DF0081E00E94730140E063E09D
:1003A00081E40E94DF0081E00E9473016C2F62955E
:1003B000607F81E40E944F0141E063E081E40E949C
:1003C000DF0040E062E081E40E94DF0040E061E0A5
:1003D00081E40E94DF0081E00E94730140E063E05D
:1003E00081E40E94DF0081E00E947301CF910895B3
:1003F0008FE690E00E94610082E790E00E94610039
:100400008CE690E00E94610089E690E00E94610025
:1004100086E690E00E94610083E690E00E94610021
:1004200080E690E00E94610082E30E94730188E20E
:100430000E94950185E00E94730188E20E94B50147
:1004400085E00E9473018EE00E94B50181E00E9468
:10045000730181E00E94B50181E00E94730186E092
:100460000E94B50183E00E9473010895811105C0C7
:1004700080E8860F0E94B5010895813021F480EC58
:10048000860F0E94B5010895CF93C82F682F607F13
:1004900081E40E944F0141E063E081E40E94DF00BB
:1004A00040E062E081E40E94DF0041E061E081E43D
:1004B0000E94DF0081E00E94730140E063E081E47C
:1004C0000E94DF0081E00E9473016C2F6295607FC3
:1004D00081E40E944F0141E063E081E40E94DF007B
:1004E00040E062E081E40E94DF0041E061E081E4FD
:1004F0000E94DF0081E00E94730140E063E081E43C
:100500000E94DF0081E00E947301CF9108950F9354
:100510001F93CF938C01C0E003C00E944402CF5FC1
:10052000F801EC0FF11D80818111F7CFCF911F9160
:100530000F910895CF93DF93CDB7DEB727970FB60E
:10054000F894DEBF0FBECDBF0E9441000E94F801AB
:1005500085E790E00E9487026CE081E00E9436020D
:10056000BE016A5F7F4F80E00E9449006E817F81FB
:1005700080E090E00E94210326EF38E24CE950E44D
:100580000E9487030E94F2029B01ADECBCEC0E942A
:10059000E3029695879596958795969587959F837F
:1005A0008E834AE0BE016F5F7F4F0E941C04CE0124
:1005B00001960E94870280E890E00E94870288EC02
:1005C0000E947301C9CFA29FB001B39FC001A39F36
:1005D000700D811D1124911DB29F700D811D11247C
:1005E000911D08950E94660388F09F5798F0B92FD7
:1005F0009927B751B0F0E1F0660F771F881F991F58
:100600001AF0BA95C9F714C0B13091F00E94800376
:10061000B1E008950C948003672F782F8827B85F86
:1006200039F0B93FCCF3869577956795B395D9F7AF
:100630003EF490958095709561957F4F8F4F9F4FB9
:100640000895E89409C097FB3EF4909580957095C5
:1006500061957F4F8F4F9F4F9923A9F0F92F96E90E
:10066000BB279395F695879577956795B795F11183
:10067000F8CFFAF4BB0F11F460FF1BC06F5F7F4F20
:100680008F4F9F4F16C0882311F096E911C0772332
:1006900021F09EE8872F762F05C0662371F096E83B
:1006A000862F70E060E02AF09A95660F771F881F0A
:1006B000DAF7880F9695879597F9089557FD905822
:1006C000440F551F59F05F3F71F04795880F97FB16
:1006D000991F61F09F3F79F08795089512161306D0
:1006E0001406551FF2CF4695F1DF08C016161706FF
:1006F0001806991FF1CF8695710561050894089534
:10070000E894BB2766277727CB0197F908950E94C5
:100710009A030C940B040E94FD0338F00E94040419
:1007200020F0952311F00C94F4030C94FA03112497
:100730000C9481030E945E0370F3959FC1F3950FA3
:1007400050E0551F629FF001729FBB27F00DB11D55
:10075000639FAA27F00DB11DAA1F649F6627B00DE5
:10076000A11D661F829F2227B00DA11D621F739FCE
:10077000B00DA11D621F839FA00D611D221F749FDC
:100780003327A00D611D231F849F600D211D822F23
:10079000762F6A2F11249F5750409AF0F1F088234A
:1007A0004AF0EE0FFF1FBB1F661F771F881F915077
:1007B0005040A9F79E3F510580F00C94F4030C942F
:1007C00081035F3FE4F3983ED4F386957795679570
:1007D000B795F795E7959F5FC1F7FE2B880F911DA1
:1007E0009695879597F9089597F99F6780E870E047
:1007F00060E008959FEF80EC089500240A94161697
:10080000170618060906089500240A9412161306FE
:10081000140605060895092E0394000C11F488238C
:1008200052F0BB0F40F4BF2B11F460FF04C06F5FA8
:100830007F4F8F4F9F4F0895BB274A3031F4992344
:1008400022F4BDE2909581959F4F0C942804BB271C
:10085000FB015527AA27880F991FAA1FA41710F07C
:10086000A41B83955051B9F7A05DAA3308F0A95D88
:10087000A193009779F7B111B1931192CB010C9428
:100880004104DC01FC01672F71917723E1F7329776
:1008900004C07C916D9370836291AE17BF07C8F35B
:0608A0000895F894FFCF5B
:1008A600410701410601410501410401410301419E
:1008B600020141010154454D502076616C75650079
:0408C60020200000EE
:00000001FF
