:100000000C942A000C943F000C943F000C943F0089
:100010000C943F000C943F000C943F000C943F0064
:100020000C943F000C943F000C943F000C943F0054
:100030000C943F000C943F000C943F000C943F0044
:100040000C943F000C943F000C943F000C943F0034
:100050000C943F0011241FBECFE5D8E0DEBFCDBF1A
:1000600010E0A0E6B0E0ECE7F7E002C005900D92EA
:10007000A23AB107D9F70E949C030C94BC030C94DC
:100080000000FC019081923431F118F4913439F080
:1000900008959334E1F1943409F455C008958281B0
:1000A000813061F42AB381E090E0018002C0880FC2
:1000B000991F0A94E2F7822B8ABB08952AB381E044
:1000C00090E0018002C0880F991F0A94E2F78095A2
:1000D00082238ABB08958281813061F427B381E055
:1000E00090E0018002C0880F991F0A94E2F7822BEA
:1000F00087BB089527B381E090E0018002C0880F9C
:10010000991F0A94E2F78095822387BB0895828124
:10011000813061F424B381E090E0018002C0880F57
:10012000991F0A94E2F7822B84BB089524B381E0DF
:1001300090E0018002C0880F991F0A94E2F7809531
:10014000822384BB08958281813061F421B381E0F0
:1001500090E0018002C0880F991F0A94E2F7822B79
:1001600081BB089521B381E090E0018002C0880F37
:10017000991F0A94E2F78095822381BB0895823407
:1001800019F118F4813439F008958334B1F18434CD
:1001900009F44CC00895413059F42BB381E090E04C
:1001A00002C0880F991F6A95E2F7822B8BBB0895D6
:1001B0002BB381E090E002C0880F991F6A95E2F7A7
:1001C000809582238BBB0895413059F428B381E098
:1001D00090E002C0880F991F6A95E2F7822B88BBD6
:1001E000089528B381E090E002C0880F991F6A95B6
:1001F000E2F78095822388BB0895413059F425B3F6
:1002000081E090E002C0880F991F6A95E2F7822B87
:1002100085BB089525B381E090E002C0880F991F47
:100220006A95E2F78095822385BB0895413059F4A1
:1002300022B381E090E002C0880F991F6A95E2F72F
:10024000822B82BB089522B381E090E002C0880F28
:10025000991F6A95E2F78095822382BB08951F93C8
:10026000CF93DF93182FD62FC0E017C041E050E0A6
:100270000C2E02C0440F551F0A94E2F78D2F90E018
:10028000482359230C2E02C0559547950A94E2F74E
:100290006C2F812F0E94BF00CF5FC83038F3DF91F1
:1002A000CF911F910895823401F118F4813439F00F
:1002B0000895833481F1843409F443C0089579B3F7
:1002C00081E090E09C01062E02C0220F331F0A94A9
:1002D000E2F7872F90E08223932302C095958795BC
:1002E0006A95E2F7FA018083089576B381E090E0A1
:1002F0009C01062E02C0220F331F0A94E2F7872FBB
:1003000090E08223932302C0959587956A95E2F742
:10031000FA018083089573B381E090E09C01062E7A
:1003200002C0220F331F0A94E2F7872F90E0822346
:10033000932302C0959587956A95E2F7FA01808329
:10034000089570B381E090E09C01062E02C0220F58
:10035000331F0A94E2F7872F90E08223932302C091
:10036000959587956A95E2F7FA0180830895CF9372
:10037000DF9300D01F92CDB7DEB7198211C01B8268
:100380001A8206C02A813B812F5F3F4F3B832A831D
:100390002A813B81223C3140A8F399819F5F998358
:1003A0009981981760F30F900F900F90DF91CF9184
:1003B0000895FF920F931F93CF93DF93CDB7DEB7CE
:1003C00062970FB6F894DEBF0FBECDBF82E1EEE7B5
:1003D000F0E0DE01119601900D928A95E1F7F12C83
:1003E00017C00F2D10E0C801880F991F080F191FA3
:1003F00081E090E08C0F9D1F080F191FC8010E941B
:10040000410041E0F801618180810E94BF00F394C6
:10041000F5E0FF1530F762960FB6F894DEBF0FBE19
:10042000CDBFDF91CF911F910F91FF900895EF9273
:10043000FF920F931F93CF93DF931F92CDB7DEB739
:100440007C01198202E046C041E062E083E40E9440
:10045000BF0041E063E083E40E94BF0041E064E04C
:1004600083E40E94BF0040E0602F83E40E94BF004D
:1004700015E02DC0AE014F5F5F4F612F83E40E94F6
:1004800053018981811122C084E10E94B70107C014
:10049000AE014F5F5F4F612F83E40E94530189815A
:1004A0008823B1F3802F90E00297212F30E0255070
:1004B0003109AC01440F551F840F951F805A9F4F7F
:1004C000FC01E20FF31F8081F70180831F5F18306A
:1004D00088F20F5F053008F4B7CF0F90DF91CF910E
:1004E0001F910F91FF90EF900895CF93DF9300D06D
:1004F0001F92CDB7DEB7198211C01B821A8206C0C7
:100500002A813B812F5F3F4F3B832A832A813B8196
:10051000223C3140A8F399819F5F99839981981774
:1005200060F30F900F900F90DF91CF910895682F97
:10053000607F81E40E942F0141E063E081E40E943A
:10054000BF0040E062E081E40E94BF0040E061E063
:1005500081E40E94BF0081E00E94750240E063E0F8
:1005600081E40E94BF0081E00E9475020895CF934C
:10057000C82F682F607F81E40E942F0141E063E073
:1005800081E40E94BF0040E062E081E40E94BF007D
:1005900040E061E081E40E94BF0081E00E947502BA
:1005A00040E063E081E40E94BF0081E00E947502A8
:1005B0006C2F6295607F81E40E942F0141E063E02F
:1005C00081E40E94BF0040E062E081E40E94BF003D
:1005D00040E061E081E40E94BF0081E00E9475027A
:1005E00040E063E081E40E94BF0081E00E94750268
:1005F000CF91089588E790E00E9441008BE790E05A
:100600000E94410085E790E00E94410082E790E06F
:100610000E9441008FE690E00E9441008CE690E04D
:100620000E94410089E690E00E94410082E30E941E
:10063000750288E20E94970285E00E94750288E2B6
:100640000E94B70285E00E9475028EE00E94B70208
:1006500081E00E94750281E00E94B70281E00E9461
:10066000750286E00E94B70283E00E947502089539
:10067000811105C080E8860F0E94B702089581307D
:1006800021F480EC860F0E94B7020895CF93C82F03
:10069000682F607F81E40E942F0141E063E081E4E4
:1006A0000E94BF0040E062E081E40E94BF0041E0A0
:1006B00061E081E40E94BF0081E00E94750240E099
:1006C00063E081E40E94BF0081E00E9475026C2F0C
:1006D0006295607F81E40E942F0141E063E081E444
:1006E0000E94BF0040E062E081E40E94BF0041E060
:1006F00061E081E40E94BF0081E00E94750240E059
:1007000063E081E40E94BF0081E00E947502CF9106
:1007100008950F931F93CF938C01C0E003C00E94F4
:100720004603CF5FF801EC0FF11D80818111F7CFF7
:10073000CF911F910F910895CF93DF931F92CDB763
:10074000DEB70E94D9010E94FA0280E990E00E947F
:10075000890368E081E00E943803CE0101960E947F
:10076000170289810E9446038EE990E00E94890366
:0C07700088EC0E947502EDCFF894FFCFDA
:10077C0031323334353637383941070141060141BE
:10078C000501410401410301410201410101430200
:10079C0001430301430401430500430600430700E2
:1007AC004B657950616420627574746F6E00202003
:0207BC0000003B
:00000001FF
